:1000000009C016C015C014C013C012C011C010C062
:100010000FC032C011241FBECFE9CDBF20E0A0E643
:10002000B0E001C01D92A436B207E1F702D062C071
:10003000E7CF8FEF87BBBC9818BA82E287B98FE809
:1000400086B97894369A21E030E0809162008093FE
:100050006300882371F081508093630048B3B90135
:1000600002C0660F771F8A95E2F7CB01842B88BB0D
:10007000ECCF88B318BAE9CF1F920F920FB60F9248
:1000800011248F939F9395B1913F48F4953B48F489
:10009000993748F481E0943238F480E005C084E078
:1000A00003C083E001C082E0809362008823A1F056
:1000B0009091600089130BC090916100953618F003
:1000C000809362000FC09F5F909361000BC080938C
:1000D00060001092610006C01092610010926200F0
:1000E00010926000369A9F918F910F900FBE0F90E3
:0800F0001F901895F894FFCF52
:00000001FF
